:100000000C9493040C94B0040C94B0040C94B004BD
:100010000C94B0040C94B0040C94B0040C94B00490
:100020000C94B0040C94B0040C94E3180C942518B0
:100030000C942E230C94B0040C94B0040C94B004D3
:100040000C94B0040C94B0040C94B0040C94B00460
:100050000C94B0040C94ED220C94B0040C94B004F5
:100060000C94B0040C94B0040C94B0040C94B00440
:100070000C94B0040C94B0040C94B0040C94B00430
:100080000C94B0040C94B0040C94B0040C94B00420
:100090000C94B0040C94B0040C94B0040C94B00410
:1000A0000C94B0040C94B0040C94B00498099D090D
:1000B000A7099B09A009A509A30928102E1034102F
:1000C0003A10401046104C1007117B110F11D91037
:1000D000DD101311E01016112111EB107111EF104A
:1000E0002511F31029115311F7102D115D11FD1079
:1000F00033113D11E4101A11E7101D1102113811CE
:10010000491169116B11D5100B118411241224129D
:1001100053125312CE12EC12E713E713F1126513C8
:10012000761376132B1652160D1852160D189E16AE
:10013000C1160D18C317D3170102E201012B0103E9
:10014000E2000102E201012B0103E2000102E201EF
:10015000012C0103E201043130307C010111000166
:10016000011D01043130307C01010F0104313030B8
:100170007C01012C01043130307C01012800010197
:100180001D01043130307C01010E01043130307C1E
:1001900001012C01043130307C0101280001011DD6
:1001A00001043130307C01010B01043130307C011D
:1001B000012C01043130307C0101280001011D01B6
:1001C000043130307C01010D01043130307C0101FB
:1001D0002C01043130307C0101280005010980A187
:1001E00001850319012AB700150126B7009501758D
:1001F000108100C0050C0901A101850419012AA084
:1002000002150126A002950175108100C0050109A3
:1002100006A1018506050719E029E71500250195C6
:1002200008750181020507190029EF1500250195C0
:10023000F0750181020508190129059505750191DF
:1002400002950175039101C005010902A10109018F
:10025000A100050919012908150025019508750156
:1002600081020501093009311581257F9502750844
:10027000810609381581257F950175088106050CD1
:100280000A38021581257F950175088106C0C006D0
:1002900060FF0961A1010962150026FF0095207524
:1002A0000881020963150026FF0095207508910258
:1002B000C005010906A101050719E029E715002578
:1002C00001950875018102950175088101050719DD
:1002D0000029FF150026FF00950675088100050816
:1002E0001901290515002501950575019102950152
:1002F00075039101C009027400040100A0FA090409
:100300000000010301010009211101000122440044
:100310000705810308000109040100020300000031
:100320000921110100012222000705830320000199
:100330000705040320000109040200010301020073
:100340000921110100012247000705820310000165
:10035000090403000103000000092111010001222A
:100360006D00070585032000011201000200000056
:1003700008973274490001010203011A037A0058F8
:10038000004C00500047002F0044007A0034004E1B
:10039000004C004500000016034500720067006F26
:1003A0000064006F007800200045005A000000281B
:1003B000035A0053004100200054006500630068A8
:1003C000006E006F006C006F006700790020004C29
:1003D0000061006200730000000403090400572B51
:1003E000001400E200B60000001713680004001DAE
:1003F00000B70023528A001A0016001B0026522C58
:10040000004100080007000600215021524000155D
:100410000009001900E0000257070517000A00054F
:10042000000000015716051C0100001D010000E33B
:10043000001A153B00000016010000E30004151C23
:10044000000B00110000004608420018000D0010CB
:1004500000E500035743000C000E003600E40422C0
:10046000523F0012000F003700E016255245006988
:100470000013003800501A2944650035002D00E2B1
:10048000004F1A00000100010001000100010000FE
:10049000003A00010001000100010001003B002BB7
:1004A0001250001B01010001003C005200510006E7
:1004B00001010001003D0000004F00190101000191
:1004C000003E002B004C000501000036003F0028D4
:1004D0000000002C0000000100400028010000285E
:1004E0001200000100410001002A00280000000164
:1004F000004200240021001E0027000100430025C7
:100500000022001F000100010044002600230020FB
:100510000001000100450001003600370001000124
:1005200000010001000100010001000000010001C4
:10053000000100010001000000010001002F008700
:10054000020100010001002502300030020100011B
:1005500000010026023200320201000100010024E5
:10056000021F0289000100010001002F0222022166
:1005700002000001000100037E0000047E00000173
:10058000000100057E0000067E00000100010089D8
:10059000021E023802000001000100340233022D65
:1005A00002010001000100340033003602010001A5
:1005B0000001002302200237020100010001002E89
:1005C000002D00380001000100010001002E120181
:1005D0000001000000010001000100010001000015
:1005E00000010001000657000001000100010004A5
:1005F00057CF00D200010001000100CD00CE00D392
:10060000000100010001000557D000D100010001E8
:10061000000100000007570000000001000100ADCC
:10062000000000AC00000001000100AE000000ABC3
:100630000000000100010000000A57000000000156
:100640000001000857CF00D100A90001000100CD32
:1006500000CE00D300AA00010001000957D000D24B
:1006600000A8000100010001000B5700000100017B
:1006700000A900AA00A8000100010000000100017B
:100680000001000100010000000100010001000163
:100690000001000100010001000100010001000152
:1006A0000001000100010001000100010001000142
:1006B0000001000100010001000100010001000132
:1006C0000000000100010001000000010000000125
:1006D0000001000100000001000000010001000114
:1006E00000010001000000010001000100500801AC
:1006F0000001000100010052085108010001000141
:1007000000010001004F080100010001000100018B
:1007100000010001000100010001000100010001D1
:1007200000010000000100010001000100010000C3
:100730000001004A004A12010001000100010050BE
:1007400001501350020100E2000100521351130145
:10075000000100010001004F014F134F02077E010D
:100760000001000C134D1201000000010001000106
:100770000000000100000001000100010000000174
:100780000000000100010001000100010000000163
:100790000001002B122B13087E010001000100381C
:1007A00001041601000100010001002B002B0109CA
:1007B0007E010001000100010001000100010001B3
:1007C0000001000100010001000100000001000122
:1007D00000010001002900000001000100010001EA
:1007E0000001000100010001000100010001000101
:1007F00000010001000100010001000100010001F1
:1008000000010001000100010001000100010001E0
:1008100000000001000100010000000100000001D3
:1008200000010001000000010000000100010001C2
:100830000001000100000001000100240021001E51
:1008400000270001000100250022001F000100E335
:10085000000100260023002000010001000100012A
:100860000001000100010001000100010001000180
:100870000001000000000000000000000000000077
:100880000000000000000000000000000000000068
:100890000000000000000000007E0F00D4FFFFFFFA
:1008A000C70000007800000000000000002A2B288C
:1008B0000000000000000000000000000000000038
:1008C00029000000002C1E34202122243426272554
:1008D0002E362D3738271E1F20212223242526338C
:1008E00033362E37381F0405060708090A0B0C0D8E
:1008F0000E0F101112131415161718191A1B1C1DA0
:100900002F3130232D350405060708090A0B0C0D7D
:100910000E0F101112131415161718191A1B1C1D7F
:100920002F3130354C0011241FBECFEFDAE0DEBF8F
:10093000CDBF12E0A0E0B1E0EAE1F0E502C0059031
:100940000D92AA34B107D9F723E0AAE4B2E001C0BE
:100950001D92AD38B207E1F70E94FE0A0C940B28F5
:100960000C940000982F92959F7019F0892F24E025
:1009700001C020E0982F9695969511F02E5F892F53
:10098000982F969509F02F5F822F08959C013A9534
:1009900021153F4130F5BC0166277270AC01442738
:1009A00054709C012227387094FF0FC090FF02C042
:1009B00080E101C080E0672B09F08062452B09F0DF
:1009C0008064232B79F080680895892F8170672BCC
:1009D00009F08260452B09F08460232B19F08860B0
:1009E000089580E00895FC018281813039F4958179
:1009F00092FD12C090FF10C082E00895823039F459
:100A0000858182FD06C080FD06C083E0089586E0F2
:100A1000089585E0089584E0089590E0FC01EF5189
:100A2000FE4F208121111AC0F894FC01ED52FE4FB7
:100A30008081E82FE295EF70F0E031A1282F2F7030
:100A400081E090E001C0880F2A95EAF7982F9095F1
:100A5000932391A392A1892B82A378940895CF9395
:100A6000DF93EC010E94A921CE01805E91090897D5
:100A700010F0209731F4CE010E94C6040E94AC20F1
:100A800005C0CE010E94C6040E949B20DF91CF9139
:100A900008958FE39CE90197F1F700C00000809171
:100AA0006502823041F018F4813029F008C08330AB
:100AB00011F0853021F48CED90E00E942F0510920A
:100AC000650208958FE39CE90197F1F700C00000EB
:100AD00080916302823041F018F4813029F008C01F
:100AE000833011F0853021F48BED90E00E942F05CA
:100AF0001092630208958FE39CE90197F1F700C01B
:100B0000000080916102823041F018F4813029F0B8
:100B100008C0833011F0853021F48AED90E00E9406
:100B20002F051092610208958FE39CE90197F1F778
:100B300000C0000080915F02823041F018F48130E3
:100B400029F008C0833011F0853021F489ED90E060
:100B50000E942F0510925F0208958FE39CE9019790
:100B6000F1F700C0000080915D02823041F018F47E
:100B7000813029F008C0833011F0853021F48CEDEC
:100B800090E00E942F0510925D0208958FE39CE98A
:100B90000197F1F700C0000080915B02823041F0C4
:100BA00018F4813029F008C0833011F0853021F429
:100BB0008BED90E00E942F0510925B0208958FE369
:100BC0009CE90197F1F700C0000080915902823042
:100BD00041F018F4813029F008C0833011F08530DD
:100BE00021F489ED90E00E942F051092590208959A
:100BF0008FE39CE90197F1F700C000008091570254
:100C0000823041F018F4813029F008C0833011F0AF
:100C1000853021F48AED90E00E942F051092570252
:100C200008958FE39CE90197F1F700C000008091DF
:100C30005502843021F489E298E00E942F05109239
:100C4000550208958FE39CE90197F1F700C0000079
:100C500080915302843021F486EA90E00E942F05AF
:100C60001092530208958FE39CE90197F1F700C0B9
:100C7000000080915102823049F018F4813049F02F
:100C80000CC0833031F0853021F007C08BE293E156
:100C900002C08BE291E00E942F051092510208954C
:100CA0008FE39CE90197F1F700C0000080914F02AB
:100CB000823049F018F4813049F00CC0833031F0B3
:100CC000853021F007C08DE394E002C08AE191E015
:100CD0000E942F0510924F020895CF93DF93EC01ED
:100CE000805E9109089710F0209731F4CE010E94A0
:100CF000C6040E94B32005C0CE010E94C6040E9413
:100D0000A2208C2F0E94DC21DF91CF9108950F93B8
:100D10001F93CF93DF938C01C99719F0C0E0D0E007
:100D200002C0C0E5D0E0C8010E946D06209741F0E6
:100D30008FE99FE00197F1F700C000002197F6CFFF
:100D4000C8010E942F05DF91CF911F910F91089547
:100D5000CF93DF93EC018A81833061F48CED90E0D6
:100D60000E9487068CED90E00E9487068CED90E053
:100D70000E9487068A81843020F08CED90E00E94EA
:100D80008706DF91CF9108950E94A8060895CF931A
:100D9000DF93EC018A81833061F48BED90E00E9457
:100DA00087068BED90E00E9487068BED90E00E9415
:100DB00087068A81843020F08BED90E00E948706C0
:100DC000DF91CF9108950E94C7060895CF93DF93D6
:100DD000EC018A81833061F489ED90E00E948706FE
:100DE00089ED90E00E94870689ED90E00E948706D9
:100DF0008A81843020F089ED90E00E948706DF919F
:100E0000CF9108950E94E6060895CF93DF93EC01F9
:100E10008A81833061F48AED90E00E9487068AED32
:100E200090E00E9487068AED90E00E9487068A8102
:100E3000843020F08AED90E00E948706DF91CF9108
:100E400008950E9405070895CF93DF93EC018A81EE
:100E5000833061F48BE291E00E9487068BE291E09F
:100E60000E9487068BE291E00E9487068A81843087
:100E700020F08BE291E00E948706DF91CF910895E8
:100E8000CF93DF93EC018A81833061F48AE191E0B2
:100E90000E9487068AE191E00E9487068AE191E03C
:100EA0000E9487068A81843020F08AE191E00E94C6
:100EB0008706DF91CF9108950E94F3048093650225
:100EC000823091F018F4813079F00895833019F070
:100ED000853031F008958CED90E00E946D0604C0DD
:100EE0008CED90E00E9487068CED90E00E946D06EC
:100EF00008950E94F30480936302823091F018F405
:100F0000813079F00895833019F0853031F00895FB
:100F10008BED90E00E946D0604C08BED90E00E9486
:100F200087068BED90E00E946D0608950E94F30401
:100F300080936102823091F018F4813079F0089545
:100F4000833019F0853031F008958AED90E00E94E9
:100F50006D0604C08AED90E00E9487068AED90E05D
:100F60000E946D0608950E94F30480935F02823010
:100F700091F018F4813079F00895833019F08530BC
:100F800031F0089589ED90E00E946D0604C089ED6E
:100F900090E00E94870689ED90E00E946D0608951A
:100FA0000E94F30480935D02823091F018F4813046
:100FB00079F00895833019F0853031F008958CED83
:100FC00090E00E946D0604C08CED90E00E948706C0
:100FD0008CED90E00E946D0608950E94F3048093CA
:100FE0005B02823091F018F4813079F008958330FB
:100FF00019F0853031F008958BED90E00E946D0678
:1010000004C08BED90E00E9487068BED90E00E947B
:101010006D0608950E94F30480935902823091F086
:1010200018F4813079F00895833019F0853031F06B
:10103000089589ED90E00E946D0604C089ED90E06E
:101040000E94870689ED90E00E946D0608950E9437
:10105000F30480935702823091F018F4813079F0D4
:101060000895833019F0853031F008958AED90E0CD
:101070000E946D0604C08AED90E00E9487068AED0A
:1010800090E00E946D0608950E94F304809355023B
:10109000843021F489E298E00E946D0608950E9450
:1010A000F30480935302843021F486EA90E00E9496
:1010B0006D0608950E94F30480935102823049F036
:1010C00018F4813091F00895833031F0853049F083
:1010D00008958BE293E10BC08BE291E00E946D06D4
:1010E00004C08BE291E00E9487068BE291E00E94AF
:1010F0006D0608950E94F30480934F02823049F0F8
:1011000018F4813091F00895833031F0853049F042
:1011100008958DE394E00BC08AE191E00E946D0692
:1011200004C08AE191E00E9487068AE191E00E9472
:101130006D060895A6E0B0E0E0EAF8E00C946427BC
:1011400026E0FC01DE01119601900D922A95E1F74F
:10115000FC01258189819A81222359F0662349F077
:101160000E94811F182F682F89819A810E94F11F88
:1011700003C00E94BD1F182F69817A81812F0E94B0
:10118000201B2696E3E00C948027A4E3B0E0EBEC70
:10119000F8E00C9464274FA758AB69AB7AAB8BABE4
:1011A0009CAB911110927C03CE01889627E0DC0164
:1011B0001D922A95E9F726E0FE01BF96DC01019019
:1011C0000D922A95E1F72CA52223E1F061E00E941F
:1011D0009A0880919A028823A9F08DA5811102C0F6
:1011E00087E001C086E0898388A58A8389A58B83EF
:1011F0008EEF8C8340E250E0BE016F5F7F4F83E053
:101200000E946B2287E0FE01B896DE019196019064
:101210000D928A95E1F7CE0181960E944B1D8111B6
:101220002CC087E0FE01B196DE01119601900D926F
:101230008A95E1F76DA1662301F12091BD0230E0AE
:10124000C9010196877099274091F60250E08417F2
:10125000950761F16D8397E0929FD001939FB00D48
:101260001124A254BD4FFE01319601900D929A9522
:10127000E1F78093BD020E94E81C17E08091F6021E
:101280009091BD028917F9F0189FC0011124825472
:101290009D4F0E944B1D8823B1F08091F60290E093
:1012A0000196877099278093F602E8CF0E946A2002
:1012B0001092BD021092F602E6EBF2E087E0DF0149
:1012C0001D928A95E9F7E496E3E00C94802727982D
:1012D0002F982F98089526982E982E98089525983F
:1012E0002D982D980895279A2F9A0895269A2E9A28
:1012F0000895259A2D9A0895A0E2B0E0E2E8F9E079
:101300000C946327082F0E94B204182F5E980E9445
:101310006F090E946B090E946709812F90E0FC0110
:101320003197E730F105A8F4EA5AFF4F0C94F827FB
:101330000E9479090EC00E9479090E94760909C0AD
:101340000E94790904C00E9479090E9476090E94CE
:10135000730980919A028823D9F080914D02181761
:10136000B9F010934D028FE39CE90197F1F700C0AB
:10137000000085E0898380914D028A838EEF8B8304
:1013800040E250E0BE016F5F7F4F83E00E946B221E
:10139000802FA096E4E00C947F27A0E2B0E0E3ED7C
:1013A000F9E00C9465279FEF99838A8340E250E02F
:1013B000BE016F5F7F4F83E00E946B22A096E2E048
:1013C0000C948127A1E0B0E0E8EEF9E00C946327EB
:1013D0008730F8F420910A0130910B01232BD1F5CD
:1013E00021E030E0A90102C0440F551F8A95E2F7C1
:1013F000CA01809589830AE010E0AE014F5F5F4F1C
:1014000062E180E40E945A2690930B0180930A01C6
:1014100021C090E0FC01EF51FE4F208121111AC044
:10142000F894FC01ED52FE4F8081E82FE295EF70B9
:10143000F0E031A1282F2F7081E090E001C0880FEB
:101440002A95EAF7932F982B91A392A1809589234F
:1014500082A378942196E4E00C947F270F931F9346
:10146000CF9308EE11E0C7E0F80181918F0181115F
:1014700003C08C2F0E940D05CF5FCE30A9F7CF910E
:101480001F910F910895A1E0B0E0E9E4FAE00C9417
:101490006327082F8730C8F480910A0190910B01CF
:1014A000892BE9F519820AE010E021E030E0AE0175
:1014B0004F5F5F4F63E180E40E94A82690930B0189
:1014C00080930A01898180952BC00E94E209ADECCE
:1014D000B1E020E030E010E051E04D91E42FE295E2
:1014E000EF70F0E080A190E04F7002C09595879575
:1014F0004A95E2F780FD07C0852F022E01C0880FB4
:101500000A94EAF701C080E0182B2F5F3F4F263086
:10151000310519F7802F0E940D05812F01C080E051
:101520002196E4E00C947F27CF93DF93ADECB1E0FC
:1015300043ED51E061E070E0F8948D91E82FE29581
:10154000EF70F0E021A18F70EB0102C0CC0FDD1F26
:101550008A95E2F7CE019C2F9095922391A392A1B8
:10156000892B82A378944A175B0731F7DF91CF91DB
:101570000895A2E0B0E0EFEBFAE00C94632780E27C
:1015800090E090930B0180930A0180914C028111AD
:101590000EC00E94DD2581E080934C022FEF83ED89
:1015A00090E3215080409040E1F700C00000198294
:1015B0008FE38A830AE010E022E030E0AE014F5F63
:1015C0005F4F60E080E40E945A2690930B01809365
:1015D0000A01892B69F422E030E0AE014F5F5F4FD2
:1015E0006CE080E40E945A2690930B0180930A01DC
:1015F00080910A012296E4E00C947F27A6E4B0E0F3
:10160000E4E0FBE00C94592785B7806885BF85B777
:10161000806885BF84B7877F84BF0FB6F894A8958C
:1016200080916000886180936000109260000FBE1E
:1016300090E080E80FB6F894809361009093610089
:101640000FBE8DEE99E190934B0280934A020E9467
:1016500069180E9488188091E20084608093E200FB
:1016600078948091AC028823A1F01091E9001F705A
:101670009091EC00892F817090FD80E8182B1092DA
:10168000E9008091E80083FD0E9449151F701093C6
:10169000E90082E084BD93E095BD9AEF97BD809309
:1016A0006E000E94B90A90E090930B0180930A01AA
:1016B0000E942E0A0E94940AE6E6F2E0AAE7B2E04F
:1016C00011921D9222E0E437F207D1F780E090E01A
:1016D0000E949A27853E9E4F09F46EC065EE7EEF0C
:1016E00080E090E00E94CE2760E082E090E00E94DF
:1016F000B02781E08093740261E083E090E00E9473
:10170000B02760E074E184E090E00E94CE2760E0C2
:1017100086E090E00E94B02760E087E090E00E94C1
:10172000B02740E050E0BA0188E090E00E94C22774
:1017300060E083E290E00E94B02760E08CE090E0FF
:101740000E94B02760E08DE090E00E94B0271982EF
:101750001A821B821C821D821E821F82188648E00C
:1017600050E067E170E0CE0101960E94A02740E0C2
:1017700050E0BA018FE190E00E94C22710927602F9
:1017800010927702109278021092790284E080938E
:1017900076024091760250917702609178027091C2
:1017A00079028FE090E00E94C22740E050E0BA0149
:1017B00083E190E00E94C22782E090E00E948C27A3
:1017C0008093880284E090E00E949A279093870398
:1017D000809386030E94F61EFFEF21EE84E0F15015
:1017E00020408040E1F700C000000E94F61E80917A
:1017F0007A0280FF08C06FEF7FEF80E090E00E94E8
:10180000CE270E94BB2283E090E00E948C270E949A
:101810004420809175020E947C0989EA80938000AF
:1018200089E08093810024982C983F98479A549897
:101830005C9A55985D9A6E98769A569A8FE090E0E9
:101840000E949427609376027093770280937802C7
:101850009093790267701FEF169FB0011124759560
:1018600067957595679577277093890060938800D1
:1018700070938B0060938A0070938D0060938C004E
:101880005E980E946F090E946B090E9467098FEFA2
:1018900090E0909389008093880090938B008093D0
:1018A0008A0090938D0080938C000E9479099FEFAD
:1018B000E0E7F2E09150E040F040E1F700C00000C6
:1018C0000E9476092FEF80E792E0215080409040FF
:1018D000E1F700C000000E947309EFEFF0E722E09B
:1018E000E150F0402040E1F700C000000E946F0985
:1018F0008FEF90E7E2E081509040E040E1F700C0D8
:1019000000000E946B09FFEF20E782E0F1502040C9
:101910008040E1F700C000000E94670980917602D4
:101920008770189FC0011124959587959595879587
:101930009927909389008093880090938B008093DF
:101940008A0090938D0080938C005E980E946F09AE
:101950000E946B090E94670980E091E090938303E5
:101960008093820308E110E08091AC02853009F099
:1019700058C050E4B52E68E8E62E62E0F62E70E11D
:10198000C72EE2E1DE2E8091AC02853009F045C021
:101990008091AC02843009F1109288030FB6F8945C
:1019A000A895009360000FBEB092600083B7817F5E
:1019B000846083BF83B7816083BF7894889583B741
:1019C0008E7F83BF0FB6F894A895809160008861E0
:1019D00080936000109260000FBE8091AB0288235C
:1019E00091F20E94B90A90E090930B0180930A0152
:1019F0000E942E0A0E94940AEAE7F2E01192EE1683
:101A0000FF06E1F70E94F61EEAE7F2E081918111FC
:101A100074C2EE16FF06D1F7B6CF0E946A200E946C
:101A200006240E94F61E49E8C42E42E0D42EAAE7FE
:101A3000B2E0F60191918D91892792E0E739F9079B
:101A400019F08823B9F305C0811103C00E94D21E8A
:101A500055C03AE7832E32E0932EF12CF4017190B9
:101A60004F01F601A080A724B9F1E12CBB24B39467
:101A7000662463948A2D8B2141F12296EFAE229742
:101A80002396FFAE23970E94222325969FAF8EAF09
:101A9000259726966FAE269791E0872D8B2109F426
:101AA00090E027969FAF279722964FAD22972396D7
:101AB0005FAD239724966FAD249725967FAD25972C
:101AC00026968FAD26970E94C508E394BB0CF6E0DE
:101AD000EF12D0CFF6017082F394FFEFCF1ADF0A36
:101AE0002EE0F212BBCF8FB7F8944091890350914A
:101AF0008A0360918B0370918C038FBF80917E036A
:101B000090917F03892BE9F0809197029091980240
:101B10000E941323893C9105A0F080917E0390914F
:101B20007F03992724E0880F991F2A95E1F7FC018C
:101B3000EF5EFE4F208122FD04C0845F9E4F0E9415
:101B40003224B0907703C0907803F0907903D0905E
:101B50007A03E0907B03109278031092790310923D
:101B60007A0310927B03C11003C0FF2009F447C021
:101B700080917503909176030E9413239C019091AC
:101B80007003992309F4CFC125313105C0F19F3F7E
:101B900019F09F5F90937003CC2061F00E94A32402
:101BA0001C1414F491E001C09FEF899F802D112433
:101BB00080937803FF2061F00E94A3241F1414F087
:101BC0009FEF01C091E0899F802D112480937903BC
:101BD00080917803882399F0A0907903AA2079F066
:101BE0000E94C624811101C081E0809378038A2D70
:101BF0000E94C624811101C081E080937903D11035
:101C000003C0EE2009F447C08091730390917403E0
:101C10000E9413239C0190917103992309F487C1B9
:101C200025313105C0F19F3F19F09F5F90937103FB
:101C3000DD2061F00E9483241D1414F491E001C0A2
:101C40009FEF899F802D112480937A03EE2061F00D
:101C50000E9483241E1414F09FEF01C091E0899F1D
:101C6000802D112480937B0380917A03882399F03F
:101C7000A0907B03AA2079F00E94C624811101C0A4
:101C800081E080937A038A2D0E94C624811101C0CD
:101C900081E080937B03809177038B111AC0809140
:101CA0007803882311F08C1114C080917903882364
:101CB00011F0F8120EC080917B03882311F0E81216
:101CC00008C090917A03992331F081E0D91204C0C1
:101CD00002C081E001C080E080FD15C080917803E2
:101CE00081110FC08091790381110BC080917A031B
:101CF000811107C081E090917B03911103C080E0C6
:101D000001C081E080FD0E945C24B0927703C09204
:101D10007803F0927903D0927A03E0927B030E94D9
:101D2000062490919902891769F0809399028FB7E0
:101D3000F8944091890350918A0360918B037091CC
:101D40008C038FBF8091AC02843009F00DCE80935C
:101D5000E9008091E80082FF07CE8091E80085FFCE
:101D600024C00E94BA1981111EC080E2E82EF12C15
:101D70006E0181E2C80ED11C09C08091F100F6010C
:101D800081936F01F1E0EF1AF10869F08091E800AA
:101D900085FDF3CF8091E8008B778093E8000E9467
:101DA000BA19882399F391E001C090E08091E8008E
:101DB0008B778093E800992309F4D6CD89A18630EA
:101DC00009F479C0B0F4823009F4CECD60F48823F0
:101DD00029F1813009F08DC080939A0284E08983D3
:101DE0008EEF8A837DC0843031F1853009F463C081
:101DF00080C0893009F45FC030F4873099F18830B1
:101E000009F459C076C08A3009F457C08E3F09F0F2
:101E100070C0898394E09A838B8362C019828DE0BD
:101E2000EFEEF1E0DE01129601900D928A95E1F756
:101E30008EEF8E8755C080919A02882309F494CD45
:101E40008AA1811104C08BA10E942B208DCD81E03D
:101E500090E00BA002C0880F991F0A94E2F70E943D
:101E6000262082CD81E080939C028AA18230C1F03D
:101E700000F5882319F0813051F01BC08BA1882315
:101E800019F00E94790970CD0E946F096DCD8BA168
:101E9000882319F00E94760967CD0E946B0964CDF2
:101EA0008BA1882319F00E9473095ECD0E946709F7
:101EB0005BCD85E01FC084E01DC08AA1FF24F394A0
:101EC000811101C0F12CF0929C02811106C00E9488
:101ED0006F090E946B090E9467098BE08983FA826F
:101EE00040E250E0BE016F5F7F4F83E00E946B22B3
:101EF0003BCD8FEF0E94CD0937CDC9BCD9BC09B409
:101F000000FEFDCF8091D8008F7D8093D800809116
:101F1000E00082608093E0008091E00081FDFCCFD2
:101F20000E946A2030CD232B09F033CE68CE2139B0
:101F3000314008F07ACEAFCEA0E0B0E0E2EAFFE0B8
:101F40000C945E27DC0114962C91222309F4C1C461
:101F50007C0161E00E949A08EC01F70185818823E9
:101F600009F40EC280917E0390917F03009709F4DB
:101F70005EC0C817D90709F45AC0992734E0880F02
:101F8000991F3A95E1F7FC01EF5EFE4F2081246036
:101F90002083845F9E4FDC01CD93DC930E9432242A
:101FA00010927C0361E0C7010E949A08EC01811540
:101FB0009E4709F040C0F7018581882309F4E5C1F7
:101FC0009091760281E0890F8770987F853020F4A8
:101FD000892B8093760202C09093760280917602DC
:101FE0008770FFEF8F9FC001112495958795959578
:101FF00087959927909389008093880090938B0010
:1020000080938A0090938D0080938C00409176029B
:102010005091770260917802709179028FE090E0A0
:102020000E94C227809175020E947C09AEC1C11531
:10203000FEE7DF0729F2FE01E350FE47D7011596C0
:102040008C91E730F10580F5E35AFF4F0C94F827A7
:10205000882309F48AC08CEB91E023C0882309F41B
:1020600084C08DE991E01DC0882309F47EC08EE70D
:1020700091E017C0882309F478C08FE591E011C082
:10208000882309F472C08CE491E00BC0882309F422
:102090006CC082E491E005C0882309F466C088E33F
:1020A00091E00E94D42461C09E0137552F3F310535
:1020B00011F008F05AC06E01DD24960194E0220F61
:1020C000331F9A95E1F78901045F1E4FF901EF5E16
:1020D000FE4F6F01908180FB90F99083D701159698
:1020E0008C91882341F10E9422239093980280933F
:1020F0009702F80182818F5F828390917C038091A7
:102100007D03892B83838091F802848346815781E4
:1021100066857785C8010E941324D6018C9181FFC2
:1021200003C090E080E002C09C2F8D2F90937E032F
:1021300080937F031AC0F8014485558566857785AD
:10214000C8010E941324D6018C9181FF0EC0C801E2
:102150000E94192480917E0390917F038C179D0724
:1021600021F410927F0310927E03F701858188236A
:1021700009F40EC1CE019057839708F0DBC084E0CC
:1021800090E00E949A279093870380938603FE0134
:10219000E150F047E232F10520F4EC59FF4F0C9486
:1021A000F827809186038160ACC0809187038860A6
:1021B000B4C0809186038260A4C08091860320C051
:1021C0008091860388609DC0809187031EC08091A6
:1021D00087038260A2C080918603806192C0809153
:1021E000860380628EC08091860380648AC00E94CC
:1021F0006A2080918603806884C08091860388600D
:1022000084607FC0809187038260816086C08091F6
:1022100086038E7F76C080918703877F7EC0809102
:1022200086038D7F6EC08091860320C080918603D7
:10223000877F67C0809187031EC0809187038D7F51
:102240006CC0809186038F7E5CC0809186038F7DF9
:1022500058C0809186038F7B54C00E946A20809171
:1022600086038F774EC080918603877F8B7F49C01E
:10227000809187038D7F8E7F50C08091860382FB83
:10228000222720F991E0922790FB82F990FB83F9B5
:1022900038C080918703982F909591708E7F892BFD
:1022A00090FB81F93AC08091860386FB222720F9B2
:1022B00091E0922790FB86F924C00E946A208091C9
:1022C000860387FB222720F991E0922790FB87F96C
:1022D00018C061E001C060E08EE090E00E94B0278D
:1022E0001EC08091860384FB222720F991E092276B
:1022F00090FB84F906C080918603982F909590FBFF
:1023000080F9809386030BC08091870383FB22278B
:1023100020F991E0922790FB83F9809387036091E5
:1023200086037091870384E090E00E94CE270E948C
:102330006A2014C0C6314CE7D40709F075C28091F9
:102340007D038A7A91E009F490E090939D028111D7
:10235000BEC289E20E9485230E94681C8091F70218
:10236000877009F4B6C2F7018581882309F4B1C2E8
:102370008091870382FFADC282E00E94BA1CA9C28D
:10238000C1155EE7D50709F056CEC0E0DEE7EDCE19
:10239000C631DC4709F43EC2F7018581C081D18195
:1023A000882349F0CE010E94811F182F682FCE018B
:1023B0000E94F11F04C0CE010E94BD1F182FBE0154
:1023C000812F0E94201B0E943D1BD82FC92FC82E91
:1023D000D70115961C91159716960C9102950F70C2
:1023E0008091F702877001F11123F1F0892F807F2E
:1023F000803469F080E28D0F8830B0F0892F807EC4
:10240000803229F4B1E0BD1778F4002369F080919F
:10241000870382FF09C082E00E94BA1C8091F70204
:102420008770DD24D3948111D12CBC2EB2948FE01F
:10243000B8228B2D90E08C30910508F0C8C1FC01CA
:10244000EA57FF4F0C94F8278C2F807FCF7088239A
:1024500011F0C295C07F1123B9F0CC2309F4A5C1B6
:1024600080E28D0F883010F0C11006C090917D037E
:10247000C92BC0937D0305C090917C03C92BC093E9
:102480007C030E94681C91C18D2F0E94A921CC233E
:1024900009F49DC1D05E8C2FD83068F1CC2059F161
:1024A0000E945A1C2AC08C2F807FCF70803211F07E
:1024B000C295C07FCC2029F0E1E0CE1609F44CC0D3
:1024C00054C08091870382FD1BC0112369F0CC2387
:1024D00039F090917D03C92BC0937D030E94681C45
:1024E00080E00E94DC2173C180E00E94A921CC23FE
:1024F00009F46DC18C2F0E94611C0E94681C67C189
:10250000112381F00023A9F1013009F060C19091FD
:10251000F8028C2F8923C81709F459C1C92BC0931D
:10252000F80255C1011153C18C2F0E94AC2080913B
:10253000F8029C2F982329F09C2F90958923809353
:10254000F80220919E028C2F822309F440C1C0958D
:102550002C2320939E023BC1112321F0023008F06E
:1025600036C107C0011133C115C0112331F001116B
:102570001CC18C2F0E94B3202AC1002359F0D933EB
:1025800009F022C1FFEF27EE43E0F1502040404028
:10259000E1F718C18C2F0E94AC2019C18C2F8695B1
:1025A0008695837019F0813061F011C1112321F0FB
:1025B0008D2F9C2F937002C080E090E00E94E12359
:1025C0000CC1112321F08D2F9C2F937002C080E04D
:1025D00090E00E94BC2301C1612F8D2F0E94BD207D
:1025E000FCC08C2F8370A9F51111F5C04D2F4295B9
:1025F00046954770440F440F8D2F8F7090E09C01DB
:10260000042E01C0220F0A94EAF7D4FF08C08FE01D
:1026100090E001C0880F4A95EAF7809501C080E0FC
:10262000C695C695C370C23069F088F49091740263
:10263000C13019F0822B892302C0922B892B0E9472
:102640004420C9C0822B909174028927F8CF822B35
:10265000F6CF112319F08C2F817001C08695882345
:1026600009F4B9C04D2F429546954770440F440F69
:102670008D2F8F7090E09C01042E01C0220F0A94D0
:10268000EAF7D4FF08C08FE090E001C0880F4A95B8
:10269000EAF7809501C080E0C695C695C370C23048
:1026A00059F078F490917502C13019F0822B89238A
:1026B00009C0922B892B06C0822B90917502892725
:1026C00001C0822B0E94262086C0CF70112339F0D2
:1026D0008C2F0E9438208D2F0E94B3207CC08D2F1C
:1026E0000E94AC208C2F0E942B2075C08D2F52EFA2
:1026F000C51661F15C1538F090EFC91659F0A1EFDD
:10270000CA16F9F04EC0B3EFCB1639F1E4EFCE168E
:10271000A1F047C0112369F0011159C0CF7181E0C8
:1027200090E001C0880FCA95EAF790917502892759
:102730001EC0023008F04BC0F1CF8091870382FDAC
:1027400019C0112329F08C2F8F711FC01123D9F3C9
:102750008C2F8F710E942B203AC0112339F0CF713A
:1027600081E001C0880FCA95EAF701C080E00E94AD
:1027700026202DC0112361F08C2F8F71F8E08F9FE0
:102780009001112423602093F7020E9438201FC07B
:1027900081E00E94BA1C0230D0F082E00E94BA1C94
:1027A00016C0112321F0002371F28D2F9ACE002341
:1027B00079F2893349F42FEF47EE53E0215040403E
:1027C0005040E1F700C000008D2F0E94A92188EF42
:1027D0008B0D843010F40E940624DD20B1F080912E
:1027E000F70280FD12C0D70115961C92869586953A
:1027F00086950E943820C7010E949C0F8091F702A5
:102800008695869586950E942B2060E0C7010E94E0
:102810009A085FC080919D02811104C089E20E94E4
:1028200057239ACD85E3FBCFC330FCE7DF0779F16F
:1028300090F4C1154CE7D407E1F0C130DC4709F052
:10284000ABCD0E946A202FEF44E35CE02150404072
:102850005040E1F72BC0CB358CE7D807A1F1CC3540
:102860009CE7D90741F1CA35DC4709F095CD81E0F5
:102870002BC00E946A20BFEFE4E3FCE0B150E040CF
:10288000F040E1F700C000000E94BB2267CD6FEF6F
:102890007FEF80E090E00E94CE270E946A208FEFB9
:1028A00094E3ACE081509040A040E1F700C000000C
:1028B0000E94B02253CD8091870382FB882780F944
:1028C00091E0892701C080E00E94D11C65CD85E39D
:1028D00041CDCDB7DEB7E9E00C947A278091AE0206
:1028E00087FF11C08091E80082FD05C08091AC0295
:1028F0008111F8CF11C08091E8008B770BC08091D7
:10290000AC02882349F08091E80080FFF8CF8091E5
:10291000E8008E778093E8000895982F973068F547
:102920009093E900981739F07091EC002091ED0038
:102930005091F00003C0242F762F50E021FD02C0FB
:102940009F5FECCF3091EB003E7F3093EB003091F6
:10295000ED003D7F3093ED003091EB00316030931E
:10296000EB007093EC002093ED005093F000209169
:10297000EE0027FDE5CF80E008958F708093E90099
:1029800081E008952091B4023091B50226173707EF
:1029900048F06115710539F42091E8002E772093F5
:1029A000E80001C0B901FC0120E06115710579F171
:1029B0008091AC028823F1F18530F1F18091E8003B
:1029C00083FD3CC08091E80082FD2EC08091E8002C
:1029D00080FFEBCF2091F3008091F20090E0922BEA
:1029E0006115710551F08830910538F421912093DB
:1029F000F100615071090196F3CF21E0089709F0C9
:102A000020E08091E8008E778093E800CECF2111FE
:102A1000CFCF0AC08091AC02882361F0853061F08D
:102A20008091E80083FD0AC08091E80082FFF2CF28
:102A300080E0089582E0089583E0089581E008959C
:102A400043E050E0BC0185E00E946B22089545E020
:102A500050E0BC0182E00E946B22089540E250E009
:102A6000BC0185E00E946B220895CF93DF93EC01B7
:102A700048E050E0BC0181E00E946B2288E0FE014A
:102A8000A2EAB2E001900D928A95E1F7DF91CF9131
:102A90000895AAE2B0E0EFE4F5E10C946427EEEAD1
:102AA000F2E08091F100819342E0E63BF407C9F740
:102AB0008091AF02833009F463C030F4813071F04B
:102AC000823009F49DC0B4C08A3009F489C08B30CB
:102AD00009F46EC0893009F0ABC020C08091AE020D
:102AE000813A09F0A5C08091E800877F8093E800D3
:102AF0008091B2029091B302892B21F468E082EABE
:102B000092E003C060E080E090E070E00E94C214B8
:102B10008091E8008B778093E8008AC08091AE02B4
:102B2000813209F085C08091B2029091B302009782
:102B300019F0039709F07CC08091E800877F8093AB
:102B4000E8008091E80082FD05C08091AC0281110F
:102B5000F8CF6EC02091F3008091F20090E0922BAC
:102B6000029731F48091F100813011F0863021F428
:102B70008091F1008093A1028091E8008B7754C08E
:102B80008091AE02813A09F053C08091B2029091D7
:102B9000B302892B09F04CC08091E800877F8093B5
:102BA000E8008091E80080FFFCCF8091CC0137C025
:102BB0008091AE028132E1F58091B2029091B30230
:102BC000892BB1F58091E800877F8093E8000E940F
:102BD0006E148091B0028093CC010E946A2028C0BC
:102BE0008091AE02813221F58091E800877F809349
:102BF000E8000E946E148091B1028093A00218C078
:102C00008091AE02813AA1F48091E800877F8093A1
:102C1000E8008091E80080FFFCCF8091A0028093C3
:102C2000F1008091E8008E778093E8000E946E1496
:102C30008091E80083FFF1C18091AE029091AF02D4
:102C4000492F50E04A30510508F0E7C1FA01EE562D
:102C5000FF4F0C94F827803821F0823809F0DDC14D
:102C600008C08091AA029091AB02992389F08260FA
:102C70000FC08091B2028F70873008F0CEC1809370
:102C8000E9008091EB0085FB882780F91092E9002C
:102C90009091E800977F9093E8008093F100109264
:102CA000F1007DC1282F2D7F09F0B7C1882319F0CD
:102CB000823061F0B2C18091B002813009F0ADC1C3
:102CC000933009F080E08093AB022EC08091B00277
:102CD00081112AC08091B2028F702FEF280F263009
:102CE00008F09BC18093E9002091EB0020FF1CC0FD
:102CF000933021F48091EB00806214C09091EB003E
:102D000090619093EB0021E030E0A90102C0440FF4
:102D1000551F8A95E2F74093EA001092EA008091ED
:102D2000EB0088608093EB001092E9008091E8004E
:102D3000877F8093E8000E946E146FC181116DC17E
:102D40001091B0021F778091E3008078812B8093EF
:102D5000E3008091E800877F8093E8000E946E1472
:102D60008091E80080FFFCCF8091E3008068809331
:102D7000E300111102C082E001C083E08093AC0245
:102D80004CC18058823008F048C12091B002309187
:102D9000B1022C3D53E0350779F583E08A838AE25E
:102DA00089834FB7F894DE01139620E03EE051E2AC
:102DB000E32FF0E050935700E49120FF03C0E29529
:102DC000EF703F5FEF708E2F90E0EA3010F0C79603
:102DD00001C0C0968D939D932F5F243149F74FBF5B
:102DE0008091E800877F8093E8006AE270E0CE017E
:102DF00001960E94C214C1C08091B2029091B302A8
:102E0000432F552743305105B1F068F44130510547
:102E100009F412C14230510509F0FFC084E790E087
:102E2000E5EFF2E057C04132510589F142325105D8
:102E300009F43CC0F2C0C901992781309105B9F06D
:102E400070F082309105D9F0039709F0E6C0EBE706
:102E5000F3E0E4918E2F90E0EBE7F3E038C0E9ED8A
:102E6000F3E0E4918E2F90E0E9EDF3E030C0EFEA7B
:102E7000F3E0E4918E2F90E0EFEAF3E028C0E7E979
:102E8000F3E0E4918E2F90E0E7E9F3E020C0843096
:102E9000910508F0C2C0880F991FFC01E85FFD4F43
:102EA0000190F081E02D89E090E014C0843091051C
:102EB00008F0B3C0FC01EE0FFF1FE050FE4F019081
:102EC000F081E02DDC01A450BE4F8C9190E0009782
:102ED00009F4A3C02091E800277F2093E800209107
:102EE000B4023091B5028217930708F49C0140E0C8
:102EF0002115310589F18091AC02882309F43DC088
:102F00008530D9F18091E80083FD37C08091E800D9
:102F100082FD2FC08091E80080FFEACF4091F3004E
:102F20008091F20090E0942B2115310559F0883002
:102F3000910540F444914093F100319621503109BC
:102F40000196F2CF41E0089709F040E08091E80057
:102F50008E778093E800CCCF4111CDCF0AC080910D
:102F6000AC02882351F0853041F08091E80083FD68
:102F700004C08091E80082FFF2CF8091E8008B7757
:102F80008093E8004AC0803809F047C08091E8008B
:102F9000877F8093E8008091AD028093F10080915B
:102FA000E8008E77C6CE811138C08091B002909132
:102FB000B102992702978CF58091E800877F809372
:102FC000E8001091B0021093AD020E946E1411112E
:102FD00006C08091E30087FD02C081E001C084E06B
:102FE0008093AC0242E061EC81E00E948D1442E1EA
:102FF00061EC82E00E948D1442E261EC85E00E9467
:103000008D1442E261EC83E00E948D1442E260EC98
:1030100084E00E948D148091AC028091E80083FFCF
:1030200010C08091E800877F8093E8008091EB00DA
:1030300080628093EB0005C082E190E0E9E6F3E076
:1030400049CFAA96E3E00C9480271F920F920FB607
:103050000F9211242F933F934F935F936F937F931E
:103060008F939F93AF93BF93CF93DF93EF93FF9390
:10307000C091E900CF708091EC00D82FD17080FD15
:10308000D0E81092E9008091F000877F8093F000F3
:1030900078940E9449151092E9008091F0008860B0
:1030A0008093F000CD2BCF70C093E900FF91EF919A
:1030B000DF91CF91BF91AF919F918F917F916F9150
:1030C0005F914F913F912F910F900FBE0F901F90E6
:1030D0001895E8EDF0E080818E7F80831092E20009
:1030E0001092DA001092E100A0EEB0E08C918160C5
:1030F0008C9380818F77808319BCA7EDB0E08C9191
:103100008E7F8C9380818F7E808310929F020895A2
:10311000A0E0B0E0EEE8F8E10C945F27C8EDD0E065
:1031200088818F7E8883E7EDF0E0808181608083F5
:1031300084E082BF81E080939F0288818E7F8883B4
:1031400002EE10E0F80110821092DA0081EEC82E33
:10315000D12CF601108288818F77888388818068DE
:10316000888388818F7D888319BC1092AC0210926D
:10317000AD021092AB021092AA0290EEE92EF12C51
:10318000F70180818B7F808388818160888342E022
:1031900060E080E00E948D14F60180818E7F808344
:1031A000F801808181608083808188608083F7015D
:1031B00080818E7F8083888180618883CDB7DEB7F0
:1031C000E8E00C947B271F920F920FB60F92112408
:1031D0002F933F934F935F936F937F938F939F931F
:1031E000AF93BF93EF93FF938091E10082FF09C0FB
:1031F0008091E20082FF05C08091E1008B7F809387
:10320000E1008091DA0080FF2AC08091D80080FF21
:1032100026C08091DA008E7F8093DA008091D900F9
:1032200080FF18C080E189BD82E189BD09B400FE3C
:10323000FDCF81E08093AC0280919F0281110FC08D
:103240000E9469180E9488188091E200846080932F
:10325000E20005C019BC1092AC0210929F0280914E
:10326000E10080FF17C08091E20080FF13C08091D1
:10327000E2008E7F8093E2008091E2008061809383
:10328000E2008091D80080628093D80019BC85E06C
:103290008093AC028091E10084FF30C08091E20015
:1032A00084FF2CC080E189BD82E189BD09B400FEA4
:1032B000FDCF8091D8008F7D8093D8008091E10070
:1032C0008F7E8093E1008091E2008F7E8093E20008
:1032D0008091E20081608093E2008091AD028823BA
:1032E00011F084E007C08091E30087FD02C081E017
:1032F00001C083E08093AC028091AC028091E10038
:1033000083FF27C08091E20083FF23C08091E1000A
:10331000877F8093E10082E08093AC021092AD023F
:103320008091E1008E7F8093E1008091E2008E7FAA
:103330008093E2008091E20080618093E20042E0AD
:1033400060E080E00E948D148091F000886080939E
:10335000F000FF91EF91BF91AF919F918F917F917D
:103360006F915F914F913F912F910F900FBE0F90F2
:103370001F9018952091E4003091E50095E640916A
:10338000EC00842F817040FF23C08091E80080FD15
:103390001DC08091AC02882399F0853099F080910E
:1033A000EB0085FD11C04091E4005091E500241729
:1033B000350729F3915011F09A01E1CF84E0089587
:1033C00082E0089583E0089581E0089580E0089503
:1033D0004091E80042FFDDCF089580E0089590918C
:1033E000860392FF10C041E0282F2471243009F099
:1033F00040E031E0282F2871283009F030E04317F1
:1034000011F02CE0822793FF10C041E0282F247197
:10341000243109F040E031E0282F2871283109F0EB
:1034200030E0431711F02CE082273091870330FF02
:1034300010C051E0282F2171213009F050E041E007
:10344000282F2871283009F040E0541711F029E0A6
:10345000822731FF10C041E0282F2171213109F06E
:1034600040E031E0282F2871283109F030E043177F
:1034700011F029E0822794FD877E08958238910516
:1034800069F1B0F48133910509F475C048F48932CB
:10349000910509F467C08A32910509F471C0089555
:1034A0008533910509F459C089339105B9F0089520
:1034B000833E910589F138F4803E9105D1F0823E3A
:1034C000910529F10895863E9105C9F1873E910540
:1034D000D9F1843E910509F06CC027C02091860384
:1034E00020FD57C021FD55C02091870323FD5BC0FF
:1034F00008958091860380FD48C08091870380FFF6
:1035000048C08091860384FD46C083EE51C08091FF
:10351000860382FF3CC0F5CF8091860382FD37C0D1
:103520008091870380FD35C0ECCF8091870381FFB8
:1035300036C08091860384FD2EC087EE39C080910D
:10354000860383FF2AC0F5CF8091860383FD25C0C3
:103550008091870381FD23C0ECCF8091860385FD98
:1035600022C01FC08091860385FD1BC08091870308
:1035700083FF19C00AC08091860386FD16C017C05C
:103580008091860386FD13C010C089E311C082EECE
:103590000FC080EE0DC080E00BC086EE09C084EE47
:1035A00007C085E305C089E203C08AE201C081E368
:1035B00090E0089590917D0380917C03892B9091F8
:1035C000F8029923E1F0892B9091CC01992341F0E5
:1035D0009091860397FF04C09EE122E533E003C08B
:1035E00096E02AE433E0F90120E0915028F031918F
:1035F0003323D9F32F5FF9CF21111092F8020895E8
:103600002091F6029091BD0257E02917A9F030E011
:10361000529FF001539FF00D1124E254FD4F718130
:10362000761306C07081781303C07581741306C0C9
:103630002F5F3F4F2770E9CF80E0089581E0089524
:103640007E30B0F46630A0F48730A0F494E5899F12
:10365000F001112486E0789FE00DF11D1124E60FA2
:10366000F11DEE0FFF1FE352FC4F859194910895D9
:1036700080E001C081E090E008951F93CF93DF9335
:103680000E943E1AEC01C11580E5D807E8F5C11586
:1036900090E4D90708F0A8C0C03ED10530F5CD3C74
:1036A000D10508F094C0C83AD10578F4C53AD105DF
:1036B00008F083C0C130D10509F47CC008F4F2C021
:1036C000C430D10508F0F1C0EDC0C33CD10508F00D
:1036D000E9C0C85AD0E0CC0FDD1FCD5EDD4F0990A8
:1036E000D881C02DCE019464E1C0C11580E2D80715
:1036F00008F0CBC0C11591E0D90708F06BC0C83EF7
:10370000D10508F4D2C0CEC0C03682E5D80728F56E
:10371000C03492E5D90708F079C0C03282E5D807F5
:1037200008F06CC0C11592E5D90708F481C04C2F90
:103730004695469580E2489FA0011124C37021E080
:1037400030E0C90102C0880F991FCA95E2F7EA016B
:10375000C82BD92BCE019D68A9C0C03A82E5D807F5
:10376000B8F48C2F8F71C03892E5D90708F07BC070
:103770008695869590E2899F90011124C37081E01F
:1037800090E002C0880F991FCA95E2F79A6868C056
:10379000C03C82E5D80708F46DC0C03E92E5D90769
:1037A00008F080C0CF71DD27DC2FCC27CE01806FE1
:1037B000906A7CC081E090E079C0C55AD0E0C05FDB
:1037C000DD4F8881C82FD0E0CE0190646FC0CE015C
:1037D00090656CC08D2F0E94EF19182FCE0199278C
:1037E0000E943E1A1F715CC0CE0199270E943E1AAA
:1037F000CC27DF70D06A8C2B9D2B58C0CF71D0E0C6
:10380000DC2FCC27CE01816F906A50C08C2F8F7136
:103810008695869590E2899F90011124C37081E07E
:1038200090E002C0880F991FCA95E2F79C6818C003
:103830008C2F8F710E94EF1995E0D695C7959A95B8
:10384000E1F7CF70D0E0DC2FCC27282F30E084FFC9
:1038500005C084E0220F331F8A95E1F7D069CE01BD
:10386000822B932B23C090E0D82FCC27CE01846FDE
:10387000906A1CC08C2F8F710E94EF198F7190E09D
:10388000D82FCC27CE01906211C08D2F8F710E944E
:10389000EF19182FCE0199270E943E1A1F719062CE
:1038A000912B04C080E090E001C0CE01DF91CF9168
:1038B0001F910895809590917C03892380937C03C8
:1038C0000895809590917D03892380937D030895C9
:1038D0008091CC01882351F18091860387FF26C017
:1038E0000E94DA1A8093510340E250E069EF72E0DF
:1038F00080E593E00E94FE27892BD9F180E2E0E584
:10390000F3E0A9EFB2E001900D928A95E1F7E09122
:103910008203F0918303309761F186E08093500336
:103920000480F581E02D80E593E022C00E94DA1A40
:103930008093480348E050E069E173E088E493E055
:103940000E94FE27892BA9F088E0E8E4F3E0A9E1D2
:10395000B3E001900D928A95E1F7E0918203F09136
:103960008303309731F00280F381E02D88E493E007
:10397000099508959091F702809589238093F70225
:10398000282F277069F4981759F09091870392FFB8
:1039900007C08695869586950E942B201092F70287
:1039A00008959091870392FB222720F9281779F038
:1039B00080FB92F99093870360918603709187034F
:1039C00084E090E00E94CE2782E00E94BA1C089515
:1039D0008091F6029091BD02891719F08F5F877070
:1039E000FBCF0895CF93DF938091BC0282958F70B7
:1039F00009F04EC08091BB02882309F449C0809130
:103A0000F6024091BD025091B7026091B602C0919A
:103A1000B802D091B90277E08417D1F190E0789F95
:103A2000F001799FF00D1124DF01A254BD4F1496CF
:103A30002C911497222349F111962C91119725135B
:103A400024C02C91261321C015962C911597211175
:103A50001CC012962D913C9113972C1B3D0B283CBA
:103A6000310598F48091BC028F7080618093BC0214
:103A7000EC53FD4F80818F708061808386EB92E0F4
:103A80000E949C0F0E94E81C03C001968770C4CF5F
:103A9000DF91CF910895A4E1B0E0E1E5FDE10C9460
:103AA0005B278C0186E0F801DE011F9601900D92E4
:103AB0008A95E1F7F8018481E58096EB892E92E002
:103AC000992E9091BA02911120C0882309F463C104
:103AD000EE2009F442C0C8010E944720F82E882336
:103AE000E1F187E0F801D40101900D928A95E1F7A8
:103AF0008091BA02813031F48091B6029091B70280
:103B00000E94B01F0E94F21C48C1F801D080C18001
:103B1000A280B380F090BB022091B8023091B9022C
:103B2000FF2009F4E7C0A501421B530B483C510597
:103B300008F09DC0882309F430C18091BC02282F71
:103B4000207F9091B702222361F09C1509F460C098
:103B5000C8010E944720811163C0C8010E949C0FC8
:103B60001AC19C1113C09091B6029D110FC0E110B3
:103B70000DC08F7080618093BC0286EB92E00E9442
:103B80009C0F8091BC02F801868303C1E1103AC00A
:103B900040E06C2D8D2D0E94001B40E06C2D8D2D82
:103BA0000E94001BE82E8111F4C0DF86C88A8F8531
:103BB00098890E94B01F292F22952F70243020F45D
:103BC0009F70223028F009C02A50223080F014C0A3
:103BD000992349F0811107C013C0992321F0F801FE
:103BE0009681907F69F0805E883030F409C0803F14
:103BF00038F0815F833020F0C8010E949C0FEF2CC9
:103C0000FE2CCBC08091BC0281608093BC02C1C0FD
:103C10009091B6029D119CCFE1109ACFF80198C007
:103C2000EE2009F49ACF2091BC02822F82958F70EA
:103C300090E002978CF08091B6029091B70299873C
:103C40008887BB86AA868091BA028C871D862E87BC
:103C5000CE0108960E949C0F87E0F801A6EBB2E027
:103C600001900D928A95E1F70E94F21C94C0909108
:103C7000BC02292F207F51F486EB92E00E949C0F1A
:103C800087E0F40111928A95E9F783C0882309F44B
:103C900084C08091B7028C110CC08091B6028D1146
:103CA00008C0E11006C0F8019683C8010E949C0F6D
:103CB0006AC0C8010E944720882309F44ECFEE2035
:103CC00009F44BCF2091BC02822F82958F7090E037
:103CD000029714F28091B6029091B7029A83898379
:103CE000BC82AB828091BA028D831E822F83CE016B
:103CF0000196B0CFA21AB30AF8ECAF16B10408F0DF
:103D000042C0882309F447C0FE2CEE2009F425CFD9
:103D10008091B7028C1129C08091B6028D1125C007
:103D20009091BC0290FD18C0892F82958F70282F2A
:103D300030E02115310581F0F80196832F303105EF
:103D400041F08F5F982F9295907F86818F70892B9D
:103D50008683C8010E949C0F87E0F801A6EBB2E0C1
:103D600001900D928A95E1F718C0C8010E94472082
:103D7000811172CF8091BC0281608093BC02C80126
:103D80000E949C0F0AC087E0F40111928A95E9F71E
:103D900004C0F12C02C0FF24F3948F2D6496ECE054
:103DA0000C947727A6E0B0E0E8EDFEE10C946327E1
:103DB0000E9422238C0180912103909122030817F5
:103DC000190781F019821A820E942223682F4981E3
:103DD0005A81792F80E090E00E94C5081093220359
:103DE000009321032696E4E00C947F27EF92FF9244
:103DF0000F931F93CF93DF9380910A0190910B0152
:103E0000892BD9F0809123038F5F80932303811145
:103E100014C00E94B90A90E090930B0180930A01AC
:103E2000892B59F42FEF83EC99E02150804090408A
:103E3000E1F700C000000E94B02206E612E0C0E0F8
:103E4000D0E087E0E82EED0E8D2F0E94E2098E2D46
:103E50000E94E2098D2F0E94430A8F73F80190811E
:103E6000891721F08083FF24F39401C0F12C8E2D5B
:103E70000E94430A8F73F8019781891719F087838D
:103E800081E001C080E0F82ACF290E942E0ADF5F7E
:103E90000F5F1F4FD730A9F6CC2359F081E08093F4
:103EA00026030E9422239093250380932403C0E0DD
:103EB00022C0809126038823F1F080912403909101
:103EC00025030E941323C297B0F04EE050E066E64F
:103ED00072E08AE792E00E94FE27892B51F08EE083
:103EE000E6E6F2E0AAE7B2E001900D928A95E1F7EA
:103EF000C1E0109226038C2FCDB7DEB7E6E00C941C
:103F00007D27CF92DF92FF920F931F93CF93DF9382
:103F10006C010091750280917402082BC7E0D0E01B
:103F200010E0C8010C2E02C0959587950A94E2F71F
:103F300080FD04C02197A8F7F12C09C0FC2EB60122
:103F40008C2F0E94201B0E943D1B019799F38F2DFF
:103F5000DF91CF911F910F91FF90DF90CF90089547
:103F6000CF93DF93EC010E94811FBE010E94201BB2
:103F70000E943D1BDF91CF910895292F9E3078F547
:103F8000863068F590E036E0239F800D911D112466
:103F9000682F677023E0969587952A95E1F7FC01D5
:103FA000EE0FFF1FE80FF91FE95DFC4F40E050E006
:103FB00080E0219130E0062E02C0369527950A94C4
:103FC000E2F721703327042E01C0220F0A94EAF78A
:103FD000822B4F5F5F4F4330510559F7089580E0C2
:103FE0000895292F9E3088F5863078F590E036E0E8
:103FF000239F800D911D1124282F277051E001C0AF
:10400000550F2A95EAF723E0969587952A95E1F7CB
:10401000FC01EE0FFF1FE80FF91FE95DFC4F20E0E8
:1040200030E070E04081CB01022E02C0969587956A
:104030000A94E2F7817081958427852384278193F0
:104040002F5F3F4F2330310569F708950E947C09A7
:1040500080937502089521E030E001C0220F8A9517
:10406000EAF720958091750282230E942620089508
:1040700021E030E001C0220F8A95EAF780917502B5
:10408000822B0E9426200895809374020895FC01DB
:1040900024812223D9F0808191810E94B01F9295C2
:1040A0009F70963079F010F4925001C09A5092307F
:1040B00068F4803F69F018F4883E40F409C0843FFA
:1040C00029F406C0883E20F0813F11F080E0089579
:1040D00081E0089510927D038091CC01882341F006
:1040E0008091860387FF04C08EE1E2E5F3E003C020
:1040F00086E0EAE4F3E0DF011D928A95E9F780E0CB
:1041000090E00E94E12380E090E00E94BC231092A6
:104110007C030E94681CE7E7F3E085E0DF011D9265
:104120008A95E9F71092700310927103109272034E
:104130000E945C240895882321F00E945A1C0E944A
:10414000681C0895882339F090917C03892B809313
:104150007C030E94681C0895882321F00E94611C42
:104160000E94681C0895882339F090917D03892B63
:1041700080937D030E94681C0895909178036623C4
:1041800009F470C091110CC090917903911108C08D
:1041900090917B03911104C090917A03992331F09F
:1041A00098E09093700391E0909371038D3C21F41B
:1041B0000E94A324819504C08E3C29F40E94A3246C
:1041C00080937903C3C08F3C21F40E94A32481957E
:1041D00004C0803D29F40E94A32480937803B6C0D4
:1041E000893D19F40E94832405C08A3D31F40E9460
:1041F0008324819580937A03A9C08B3D21F40E948A
:104200008324819504C08C3D29F40E9483248093EB
:104210007B039CC09FE2980F983078F421E030E057
:10422000A90102C0440F551F9A95E2F7CA01909167
:104230007703892B8093770389C08D3D21F480918A
:10424000720381600CC08E3D21F480917203826004
:1042500006C08F3D09F07AC080917203846080931C
:10426000720374C08D3C39F49091790397FF33C089
:104270001092790357C08E3C29F490917903191656
:10428000BCF329C08F3C29F497FF25C01092780316
:1042900049C0803D19F41916CCF31DC090917A03E2
:1042A000893D29F41916BCF410927A033BC08A3D6B
:1042B00019F497FF10C0F8CF8B3D39F490917B0330
:1042C00097FF09C010927B032DC08C3D21F4909183
:1042D0007B031916BCF39FE2980F983080F421E01D
:1042E00030E0A90102C0440F551F9A95E2F7CA01B8
:1042F00080959091770389238093770313C08D3D38
:1043000021F4809172038E7F0BC08E3D21F4809149
:1043100072038D7F05C08F3D29F4809172038B7FDE
:104320008093720380917803811106C08091790394
:10433000811102C01092700380917A03811106C02E
:1043400080917B03811102C0109271030E945C2452
:104350000895882381F19CEF980F913A18F40E94F8
:1043600057230DC090E2980F983060F4877091E069
:1043700001C0990F8A95EAF7892F0E94611C0E945B
:10438000681C08959BE5980F933028F480E090E036
:104390000E94E123089598E5980F9B3128F480E06E
:1043A00090E00E94BC23089593E3980F933118F492
:1043B00060E00E94BD200895CF93882309F46EC069
:1043C000C82F8CEF8C0F813AA0F58091CC01882307
:1043D000E1F08091860387FF18C0EC2FE695E69503
:1043E000E695F0E0E05BFC4F8281282F30E04C2F17
:1043F000477081E090E002C0880F991F4A95E2F76C
:1044000082239323892B61F410C0EAE4F3E080E572
:1044100093E02191C21721F08E179F07D1F705C0B5
:104420008C2F0E9457230E94681C8C2F0E9485238A
:1044300010C080E28C0F883078F4C77081E090E083
:1044400001C0880FCA95EAF790917D03892B80936C
:104450007D030E94681C22C0EBE5EC0FE33040F4C2
:10446000F0E0E05FFD4F808190E00E94E12316C004
:10447000E8E5EC0FEB3150F4F0E0EE0FFF1FED5EDE
:10448000FD4F808191810E94BC2308C083E38C0F83
:10449000833120F461E08C2F0E94BD20CF910895DC
:1044A0001F93CF93DF93182FEB010E94DC212097FD
:1044B00041F08FE99FE00197F1F700C000002197DC
:1044C000F6CF812F0E94A921DF91CF911F910895EE
:1044D0008091A10208950F931F93CF93DF938B01D7
:1044E000EA019091AC029430A9F58F708093E900B5
:1044F0008FEF9091E800815095FD06C095ED9A955B
:10450000F1F700008111F5CF8091E80085FF22C00E
:104510000E94BA19811115C0209789F08091E80096
:1045200085FD06C08091E8008E778093E800F0CF8B
:10453000F80181918F018093F1002197EDCF90E0F8
:1045400001C0982F8091E8008E778093E80081E089
:10455000911101C080E0DF91CF911F910F910895DB
:104560009AE088E10FB6F894A895809360000FBE9A
:1045700090936000FFCFF89481E08093E00080E2A8
:104580008093D800E9ECF0E010828FE19EE401977F
:10459000F1F700C000001DBA109268001CBC10BEEC
:1045A0001FBA10927A0010926E0010926F00109253
:1045B0007100109272001082ECEBF0E0108214B8DF
:1045C00017B81AB81DB810BA108215B818B81BB8A9
:1045D0001EB811BA0C94003F089578941F920F9260
:1045E0000FB60F9211248F939F93AF93BF93809137
:1045F000890390918A03A0918B03B0918C0301965B
:10460000A11DB11D8093890390938A03A0938B030E
:10461000B0938C03BF91AF919F918F910F900FBE7C
:104620000F901F9018959C014FB7F89480918903C3
:1046300090918A03A0918B03B0918C034FBF821B92
:10464000930B08952FB7F8948091890390918A0372
:10465000A0918B03B0918C032FBF08951F920F92EE
:104660000FB60F9211248F939F93AF93BF938091B6
:104670008803811113C08091890390918A03A091CE
:104680008B03B0918C034196A11DB11D80938903CA
:1046900090938A03A0938B03B0938C03BF91AF9147
:1046A0009F918F910F900FBE0F901F901895909132
:1046B000CC01992321F09091860397FD03C0E8E493
:1046C000F3E01DC0E82FE695E695E695EE31E0F4BF
:1046D000F0E0E05BFC4F877021E030E0A90102C010
:1046E000440F551F8A95E2F7CA018095928189236C
:1046F00082830895319653E0EE34F50729F09281D4
:104700008913F8CF1282F6CF08959091CC019923A6
:10471000D1F09091860397FF16C0E82FE695E695B5
:10472000E695EE3140F5F0E0E05BFC4F877021E06C
:1047300030E0A90102C0440F551F8A95E2F7CA0173
:104740009281892B16C0AAE4B3E0EFEF90E02D919F
:10475000821789F0EF3F19F4211101C0E92F9F5F03
:104760009630A9F7EF3F39F00E2E000CFF0BE85BF7
:10477000FC4F828308950895A3E0B0E0E2ECF3E2F9
:104780000C946527209184033091850328173907FD
:10479000A1F09093850380938403E0918203F091CC
:1047A0008303309751F024E029839B838A8300841C
:1047B000F185E02DCE01019609952396E2E00C9457
:1047C0008127A3E0B0E0E7EEF3E20C9465272091A7
:1047D00080033091810328173907A1F0909381035A
:1047E00080938003E0918203F0918303309751F02E
:1047F00023E029839B838A830084F185E02DCE0109
:10480000019609952396E2E00C948127E0918203BA
:10481000F0918303309729F00190F081E02D099504
:10482000089580E008954115510511F0FA010995A8
:104830000895CF93DF93EC014A855B856E857F8574
:104840000E9413248B810E945A1C8C810E94611C3F
:104850000E94681C86E0FE0111928A95E9F7DF91BB
:10486000CF910895CF93DF93EC018D8181FD17C027
:1048700082608D8390917C038B81892B80937C0354
:1048800090917D038C81892B80937D030E94681C0D
:10489000488559856E857F85CE010E94132410922C
:1048A0007F0310927E038D8180FD03C0CE010E94A4
:1048B0001924DF91CF9108950E942223209178033B
:1048C000211104C020917903222321F090937603D3
:1048D0008093750320917A03211104C020917B03FA
:1048E000222321F09093740380937303E091820359
:1048F000F0918303309731F00680F781E02D87E750
:1049000093E0099508958091720380FD18C081FDA0
:1049100014C082FD16C080917103882381F08C330E
:1049200080F427E0829FC00111246CE370E00E94B4
:10493000E427862F672B19F005C083E0089581E0F6
:10494000089587E008958091720380FD17C081FD6E
:1049500017C082FD19C080917003882399F08C33B1
:1049600098F428E3829FC00111246CE370E00E9458
:10497000E427862F672B49F481E008958EE008959F
:104980008CE1089588E0089588E30895282F35EB99
:104990002303C001112497FF03C08058910902C06E
:1049A00080589F4F892F0895A0E0B0E0EAEDF4E22F
:1049B0000C945D27EC018AE0A82EFE0124912223AD
:1049C00009F4A3C0213009F044C0319684918130AC
:1049D00059F42296FE018491893319F060E070E069
:1049E0008EC060E570E08BC0823031F42296FE010B
:1049F00084910E94DC2187C0833031F42296FE012D
:104A000084910E94A9217FC0843009F07BC0229646
:104A1000FE01249180E090E030E0205331092A30FB
:104A2000310560F4A89EA001A99E500D1124C90172
:104A3000840F951F2196FE012491EECF009709F473
:104A400062C0EFE9FFE03197F1F700C00000019785
:104A5000F5CFE22FF0E0EB55F74FB490822F86951B
:104A60008695869590E0FC01EB56F74FE490277011
:104A7000F12C022E02C0F594E7940A94E2F7F1E0DB
:104A8000EF22FF24FC01EB57F74FC490D12C022EEC
:104A900002C0D594C7940A94E2F731E0C322DD2422
:104AA000FC01EB58F74F049110E002C015950795F3
:104AB0002A95E2F701701127E114F10419F081EE53
:104AC0000E94DC21C114D10419F086EE0E94DC2181
:104AD00060E070E08B2D0E945022C114D10419F0C7
:104AE00086EE0E94A921E114F10419F081EE0E94E2
:104AF000A9210115110539F060E070E08CE20E94F7
:104B0000502201C0EF01219658CFCDB7DEB7EAE0C1
:104B10000C947927EF92FF920F931F93CF93DF931B
:104B2000182FEB011092BC0084EA8093BC000E9415
:104B300022237C018091BC0087FD0DC0CF3F8FEF09
:104B4000D807C1F3C7010E941323C817D90790F7EC
:104B50008EEF9FEF2DC08091B900887F883041F0A3
:104B60008091B900887F803119F08FEF9FEF20C0CE
:104B70001093BB0084E88093BC000E9422238C0128
:104B80008091BC0087FD0BC0CF3F8FEFD807C1F3EA
:104B9000C8010E941323C817D90790F7D9CF809175
:104BA000B900887F883111F08034F9F680E090E018
:104BB000CDB7DEB7E6E00C947D271092B9008CE00B
:104BC0008093B80008950F931F93CF93DF93EB0169
:104BD0008093BB0084E88093BC000E9422238C0158
:104BE0008091BC0087FD0DC0CF3F8FEFD807C1F388
:104BF000C8010E941323C817D90790F78EEF9FEFC3
:104C00000CC02091B900287F81E090E0283211F497
:104C100080E090E0919581959109DF91CF911F916E
:104C20000F9108950F931F93CF93DF93EC0184ECC2
:104C30008093BC000E9422238C018091BC0087FDE0
:104C40000DC0CF3F8FEFD807C1F3C8010E941323D7
:104C5000C817D90790F78EEF9FEF03C08091BB0074
:104C600090E0DF91CF911F910F9108950F931F93C3
:104C7000CF93DF93EC0184E88093BC000E94222351
:104C80008C018091BC0087FD0DC0CF3F8FEFD8070E
:104C9000C1F3C8010E941323C817D90790F78EEFFC
:104CA0009FEF03C08091BB0090E0DF91CF911F91F7
:104CB0000F910895A0E0B0E0E0E6F6E20C945927E9
:104CC000682E762E5A0169010E9422234C0104317C
:104CD000110558F00F3F8FEF180751F0C80164E13C
:104CE00070E00E944127EB0105C0C1E0D0E002C0A6
:104CF000C5E0D0E0BE01862D0E948A257C0197FF89
:104D00000BC00F3F8FEF1807A9F3C4010E941323B4
:104D10000817190778F713C0B801872D0E94E325FB
:104D20007C01E501CA0CDB1CCC15DD0541F0F7FC6C
:104D300006C0B80189910E94E3257C01F5CF84E982
:104D40008093BC00C701CDB7DEB7EEE00C947527A9
:104D5000A0E0B0E0EEEAF6E20C945927782E662E39
:104D60007A01E9010E9422235C010431110558F007
:104D70000F3F8FEF180759F0C80164E170E00E94FF
:104D800041276B0107C0CC24C394D12C03C025E07C
:104D9000C22ED12CB601872D0E948A254C0197FF87
:104DA0000BC00F3FEFEF1E07A9F3C5010E941323AD
:104DB0000817190778F72BC0B801862D0E94E32544
:104DC0004C0197FD24C0F72DF1607F2E0E94222315
:104DD0005C010431110528F10F3F8FEF180729F10D
:104DE000C80164E170E00E9441276B01B601872D84
:104DF0000E948A254C0197FD1CC067012197C601BE
:104E00008E199F098C179D0758F597FE1DC084E9E0
:104E10008093BC00C4011816190674F580E090E078
:104E20002BC0CC24C394D12CE1CF85E0C82ED12C4B
:104E3000DDCF0F3FEFEF1E07C9F2C5010E9413231C
:104E40000817190798F6D9CFC8010E9412264C01FD
:104E500097FD02C0F6018083FFEFCF1ADF0ACFCFA4
:104E600097FCD5CFC8010E9436264C0197FDCFCFC5
:104E7000CE0DDF1D8883CBCFCDB7DEB7EEE00C942F
:104E80007527AA1BBB1B51E107C0AA1FBB1FA61792
:104E9000B70710F0A61BB70B881F991F5A95A9F7E3
:104EA00080959095BC01CD0108952F923F924F922D
:104EB0005F926F927F928F929F92AF92BF92CF92AA
:104EC000DF92EF92FF920F931F93CF93DF93CDB7B3
:104ED000DEB7CA1BDB0B0FB6F894DEBF0FBECDBF2B
:104EE00009942A88398848885F846E847D848C84FC
:104EF0009B84AA84B984C884DF80EE80FD800C8105
:104F00001B81AA81B981CE0FD11D0FB6F894DEBFE7
:104F10000FBECDBFED010895F999FECF92BD81BDC1
:104F2000F89A992780B50895A6E1B0E044E050E0F2
:104F30000C94D627A8E1B0E042E050E00C94D627CC
:104F4000DC01A40FB51F4150504048F0CB01840F45
:104F5000951F2E910E94B12741505040D0F70895DF
:104F6000262FF999FECF92BD81BDF89A019700B422
:104F7000021639F01FBA20BD0FB6F894FA9AF99AC2
:104F80000FBE08950396272F0E94B1270E94B027D5
:104F9000252F0E94B127242F0C94B1270196272F8B
:104FA0000E94B1270C94B027DC01CB01FC01F999D8
:104FB000FECF06C0F2BDE1BDF89A319600B40D9265
:104FC00041505040B8F7089597FB072E16F400940F
:104FD00007D077FD09D00E94412707FC05D03EF499
:104FE000909581959F4F0895709561957F4F089595
:104FF000EE0FFF1F0590F491E02D0994FB01DC01F9
:1050000004C08D910190801921F441505040C8F79F
:0A501000881B990B0895F894FFCF58
:10501A00682235152E1527152015200000000000DE
:10502A00000040077A085006000000000000000057
:10503A00000024075A0833060000000000000000A0
:10504A00000000004F0822060000000000000000D7
:10505A0000000000440811060000000000000000E3
:10506A00000005072708F8050000000000000000FE
:10507A000000E6060A08DF05000000000000000044
:10508A000000C706ED07C60500000000000000008A
:10509A000000A806D007AD050000000000000000CF
:1050AA0000000207B307940500000000000000009A
:1050BA000000210796077B050000000000000000A1
:1050CA000000E30679076205000000000000000006
:1050DA000000C4065C0749050000000001F0F1F475
:1050EA00F5F6F700000000000000303132339293E9
:1050FA006601010101010101000000000000007ABF
:10510A00584C50472F447A344E4C45004422476D40
:10511A00B1028F024802DB0107032003400359034F
:10512A00818283E200E900EA00B500B600B700CD4B
:10513A00008301CC008A01920194012102230224F6
:10514A00022502260227022A02B300B4006F007069
:0A515A00009F01CB019F02A002009C
:00000001FF
